{
  "_format": "hh3-artifact-1",
  "contractName": "FanVestFactory",
  "sourceName": "contracts/FanVestFactory.sol",
  "abi": [
    {
      "inputs": [
        {
          "internalType": "address",
          "name": "_usdcTokenAddress",
          "type": "address"
        },
        {
          "internalType": "address",
          "name": "_aavePoolAddress",
          "type": "address"
        },
        {
          "internalType": "address",
          "name": "_aUSDCAddress",
          "type": "address"
        }
      ],
      "stateMutability": "nonpayable",
      "type": "constructor"
    },
    {
      "anonymous": false,
      "inputs": [
        {
          "indexed": true,
          "internalType": "address",
          "name": "holder",
          "type": "address"
        },
        {
          "indexed": false,
          "internalType": "uint256",
          "name": "tokenCount",
          "type": "uint256"
        }
      ],
      "name": "HolderAdded",
      "type": "event"
    },
    {
      "anonymous": false,
      "inputs": [
        {
          "indexed": true,
          "internalType": "address",
          "name": "holder",
          "type": "address"
        },
        {
          "indexed": false,
          "internalType": "uint256",
          "name": "newTokenCount",
          "type": "uint256"
        }
      ],
      "name": "HolderUpdated",
      "type": "event"
    },
    {
      "anonymous": false,
      "inputs": [
        {
          "indexed": true,
          "internalType": "string",
          "name": "spotifyArtistId",
          "type": "string"
        },
        {
          "indexed": false,
          "internalType": "address",
          "name": "poolAddress",
          "type": "address"
        },
        {
          "indexed": false,
          "internalType": "address",
          "name": "creator",
          "type": "address"
        }
      ],
      "name": "PoolCreated",
      "type": "event"
    },
    {
      "anonymous": false,
      "inputs": [
        {
          "indexed": false,
          "internalType": "string",
          "name": "spotifyArtistId",
          "type": "string"
        },
        {
          "indexed": false,
          "internalType": "address",
          "name": "poolAddress",
          "type": "address"
        },
        {
          "indexed": false,
          "internalType": "string",
          "name": "tokenName",
          "type": "string"
        },
        {
          "indexed": false,
          "internalType": "string",
          "name": "tokenSymbol",
          "type": "string"
        }
      ],
      "name": "PoolInfo",
      "type": "event"
    },
    {
      "inputs": [],
      "name": "aUSDCAddress",
      "outputs": [
        {
          "internalType": "address",
          "name": "",
          "type": "address"
        }
      ],
      "stateMutability": "view",
      "type": "function"
    },
    {
      "inputs": [],
      "name": "aavePoolAddress",
      "outputs": [
        {
          "internalType": "address",
          "name": "",
          "type": "address"
        }
      ],
      "stateMutability": "view",
      "type": "function"
    },
    {
      "inputs": [
        {
          "internalType": "uint256",
          "name": "",
          "type": "uint256"
        }
      ],
      "name": "allPools",
      "outputs": [
        {
          "internalType": "address",
          "name": "",
          "type": "address"
        }
      ],
      "stateMutability": "view",
      "type": "function"
    },
    {
      "inputs": [
        {
          "internalType": "string",
          "name": "",
          "type": "string"
        }
      ],
      "name": "artistPools",
      "outputs": [
        {
          "internalType": "address",
          "name": "",
          "type": "address"
        }
      ],
      "stateMutability": "view",
      "type": "function"
    },
    {
      "inputs": [
        {
          "internalType": "string",
          "name": "_spotifyArtistId",
          "type": "string"
        },
        {
          "internalType": "string",
          "name": "_tokenName",
          "type": "string"
        },
        {
          "internalType": "string",
          "name": "_tokenSymbol",
          "type": "string"
        },
        {
          "internalType": "address",
          "name": "_owner",
          "type": "address"
        }
      ],
      "name": "createPool",
      "outputs": [],
      "stateMutability": "nonpayable",
      "type": "function"
    },
    {
      "inputs": [],
      "name": "getAllPools",
      "outputs": [
        {
          "internalType": "address[]",
          "name": "",
          "type": "address[]"
        }
      ],
      "stateMutability": "view",
      "type": "function"
    },
    {
      "inputs": [
        {
          "internalType": "string",
          "name": "_spotifyArtistId",
          "type": "string"
        }
      ],
      "name": "getPoolAddress",
      "outputs": [
        {
          "internalType": "address",
          "name": "",
          "type": "address"
        }
      ],
      "stateMutability": "view",
      "type": "function"
    },
    {
      "inputs": [
        {
          "internalType": "uint256",
          "name": "_index",
          "type": "uint256"
        }
      ],
      "name": "getPoolByIndex",
      "outputs": [
        {
          "internalType": "address",
          "name": "",
          "type": "address"
        }
      ],
      "stateMutability": "view",
      "type": "function"
    },
    {
      "inputs": [],
      "name": "getPoolCount",
      "outputs": [
        {
          "internalType": "uint256",
          "name": "",
          "type": "uint256"
        }
      ],
      "stateMutability": "view",
      "type": "function"
    },
    {
      "inputs": [
        {
          "internalType": "string",
          "name": "_spotifyArtistId",
          "type": "string"
        }
      ],
      "name": "getPoolInfo",
      "outputs": [
        {
          "internalType": "address",
          "name": "poolAddress",
          "type": "address"
        },
        {
          "internalType": "bool",
          "name": "exists",
          "type": "bool"
        }
      ],
      "stateMutability": "view",
      "type": "function"
    },
    {
      "inputs": [
        {
          "internalType": "string",
          "name": "_spotifyArtistId",
          "type": "string"
        }
      ],
      "name": "hasPool",
      "outputs": [
        {
          "internalType": "bool",
          "name": "",
          "type": "bool"
        }
      ],
      "stateMutability": "view",
      "type": "function"
    },
    {
      "inputs": [
        {
          "internalType": "address",
          "name": "",
          "type": "address"
        }
      ],
      "name": "holderTokenCount",
      "outputs": [
        {
          "internalType": "uint256",
          "name": "",
          "type": "uint256"
        }
      ],
      "stateMutability": "view",
      "type": "function"
    },
    {
      "inputs": [
        {
          "internalType": "address",
          "name": "",
          "type": "address"
        }
      ],
      "name": "isHolderTracked",
      "outputs": [
        {
          "internalType": "bool",
          "name": "",
          "type": "bool"
        }
      ],
      "stateMutability": "view",
      "type": "function"
    },
    {
      "inputs": [
        {
          "internalType": "string",
          "name": "",
          "type": "string"
        }
      ],
      "name": "poolExists",
      "outputs": [
        {
          "internalType": "bool",
          "name": "",
          "type": "bool"
        }
      ],
      "stateMutability": "view",
      "type": "function"
    },
    {
      "inputs": [
        {
          "internalType": "uint256",
          "name": "",
          "type": "uint256"
        }
      ],
      "name": "uniqueHolders",
      "outputs": [
        {
          "internalType": "address",
          "name": "",
          "type": "address"
        }
      ],
      "stateMutability": "view",
      "type": "function"
    },
    {
      "inputs": [],
      "name": "usdcTokenAddress",
      "outputs": [
        {
          "internalType": "address",
          "name": "",
          "type": "address"
        }
      ],
      "stateMutability": "view",
      "type": "function"
    }
  ],
  "bytecode": "0x60e060405234801561000f575f5ffd5b50604051612f5b380380612f5b83398101604081905261002e9161016d565b6001600160a01b0383166100895760405162461bcd60e51b815260206004820152601a60248201527f496e76616c6964205553444320746f6b656e206164647265737300000000000060448201526064015b60405180910390fd5b6001600160a01b0382166100df5760405162461bcd60e51b815260206004820152601960248201527f496e76616c6964204161766520506f6f6c2061646472657373000000000000006044820152606401610080565b6001600160a01b0381166101355760405162461bcd60e51b815260206004820152601560248201527f496e76616c6964206155534443206164647265737300000000000000000000006044820152606401610080565b6001600160a01b0392831660805290821660a0521660c0526101ad565b80516001600160a01b0381168114610168575f5ffd5b919050565b5f5f5f6060848603121561017f575f5ffd5b61018884610152565b925061019660208501610152565b91506101a460408501610152565b90509250925092565b60805160a05160c051612d6f6101ec5f395f818161013b01526105bb01525f81816102bf015261059a01525f818161023301526105770152612d6f5ff3fe608060405234801561000f575f5ffd5b50600436106100fb575f3560e01c806377b53ece11610093578063d88ff1f411610063578063d88ff1f414610292578063daa74181146102a7578063ee567cd9146102ba578063f9b4cfa9146102e1575f5ffd5b806377b53ece1461022e5780638eec5d7014610255578063b8c10b151461025d578063d54a92cd14610270575f5ffd5b806347df9bf1116100ce57806347df9bf11461019b57806367123c2d146101d95780636ce0c4b5146101ee5780636d82a08b14610201575f5ffd5b80631b66ec0e146100ff57806324bcc8d2146101365780632a7300071461017557806341d1de9714610188575b5f5ffd5b61011261010d366004610945565b610314565b604080516001600160a01b0390931683529015156020830152015b60405180910390f35b61015d7f000000000000000000000000000000000000000000000000000000000000000081565b6040516001600160a01b03909116815260200161012d565b61015d61018336600461097f565b61036b565b61015d61019636600461097f565b610393565b6101c96101a9366004610945565b805160208183018101805160028252928201919093012091525460ff1681565b604051901515815260200161012d565b6101ec6101e73660046109b1565b6103a2565b005b61015d6101fc36600461097f565b61076a565b61022061020f366004610a50565b60036020525f908152604090205481565b60405190815260200161012d565b61015d7f000000000000000000000000000000000000000000000000000000000000000081565b600154610220565b6101c961026b366004610945565b6107e0565b6101c961027e366004610a50565b60056020525f908152604090205460ff1681565b61029a61080a565b60405161012d9190610a70565b61015d6102b5366004610945565b61086a565b61015d7f000000000000000000000000000000000000000000000000000000000000000081565b61015d6102ef366004610945565b80516020818301810180515f825292820191909301209152546001600160a01b031681565b5f5f5f836040516103259190610abb565b908152604051908190036020018120546001600160a01b03169060029061034d908690610abb565b90815260405190819003602001902054909460ff9091169350915050565b6004818154811061037a575f80fd5b5f918252602090912001546001600160a01b0316905081565b6001818154811061037a575f80fd5b6002846040516103b29190610abb565b9081526040519081900360200190205460ff16156104235760405162461bcd60e51b815260206004820152602360248201527f506f6f6c20616c72656164792065786973747320666f722074686973206172746044820152621a5cdd60ea1b60648201526084015b60405180910390fd5b5f84511161047d5760405162461bcd60e51b815260206004820152602160248201527f53706f74696679206172746973742049442063616e6e6f7420626520656d70746044820152607960f81b606482015260840161041a565b5f8351116104cd5760405162461bcd60e51b815260206004820152601a60248201527f546f6b656e206e616d652063616e6e6f7420626520656d707479000000000000604482015260640161041a565b5f82511161051d5760405162461bcd60e51b815260206004820152601c60248201527f546f6b656e2073796d626f6c2063616e6e6f7420626520656d70747900000000604482015260640161041a565b6001600160a01b0381166105735760405162461bcd60e51b815260206004820152601c60248201527f4f776e65722063616e6e6f74206265207a65726f206164647265737300000000604482015260640161041a565b5f847f000000000000000000000000000000000000000000000000000000000000000085857f00000000000000000000000000000000000000000000000000000000000000007f0000000000000000000000000000000000000000000000000000000000000000876040516105e790610899565b6105f79796959493929190610aff565b604051809103905ff080158015610610573d5f5f3e3d5ffd5b509050805f866040516106239190610abb565b90815260200160405180910390205f6101000a8154816001600160a01b0302191690836001600160a01b0316021790555060016002866040516106669190610abb565b908152604051602091819003919091018120805460ff1916921515929092179091556001805480820182555f919091527fb10e2d527612073b26eecdfd717e6a320cf44b4afac2b0732d9fcbe2b7fa0cf60180546001600160a01b0319166001600160a01b0384161790556106dc908690610abb565b604080519182900382206001600160a01b03808516845285166020840152917ff1bc21ed97ab3f0ef33f31038b179da31c46944bec01f4410240814d0571adea910160405180910390a27fa0652b762196bca323f10a7155c2861b2daef80374567404941e2c83127a52f68582868660405161075b9493929190610b73565b60405180910390a15050505050565b6001545f9082106107b35760405162461bcd60e51b8152602060048201526013602482015272496e646578206f7574206f6620626f756e647360681b604482015260640161041a565b600182815481106107c6576107c6610bc5565b5f918252602090912001546001600160a01b031692915050565b5f6002826040516107f19190610abb565b9081526040519081900360200190205460ff1692915050565b6060600180548060200260200160405190810160405280929190818152602001828054801561086057602002820191905f5260205f20905b81546001600160a01b03168152600190910190602001808311610842575b5050505050905090565b5f5f8260405161087a9190610abb565b908152604051908190036020019020546001600160a01b031692915050565b61216080610bda83390190565b634e487b7160e01b5f52604160045260245ffd5b5f82601f8301126108c9575f5ffd5b813567ffffffffffffffff8111156108e3576108e36108a6565b604051601f8201601f19908116603f0116810167ffffffffffffffff81118282101715610912576109126108a6565b604052818152838201602001851015610929575f5ffd5b816020850160208301375f918101602001919091529392505050565b5f60208284031215610955575f5ffd5b813567ffffffffffffffff81111561096b575f5ffd5b610977848285016108ba565b949350505050565b5f6020828403121561098f575f5ffd5b5035919050565b80356001600160a01b03811681146109ac575f5ffd5b919050565b5f5f5f5f608085870312156109c4575f5ffd5b843567ffffffffffffffff8111156109da575f5ffd5b6109e6878288016108ba565b945050602085013567ffffffffffffffff811115610a02575f5ffd5b610a0e878288016108ba565b935050604085013567ffffffffffffffff811115610a2a575f5ffd5b610a36878288016108ba565b925050610a4560608601610996565b905092959194509250565b5f60208284031215610a60575f5ffd5b610a6982610996565b9392505050565b602080825282518282018190525f918401906040840190835b81811015610ab05783516001600160a01b0316835260209384019390920191600101610a89565b509095945050505050565b5f82518060208501845e5f920191825250919050565b5f81518084528060208401602086015e5f602082860101526020601f19601f83011685010191505092915050565b60e081525f610b1160e083018a610ad1565b6001600160a01b03891660208401528281036040840152610b328189610ad1565b90508281036060840152610b468188610ad1565b6001600160a01b03968716608085015294861660a08401525050921660c090920191909152949350505050565b608081525f610b856080830187610ad1565b6001600160a01b03861660208401528281036040840152610ba68186610ad1565b90508281036060840152610bba8185610ad1565b979650505050505050565b634e487b7160e01b5f52603260045260245ffdfe60e060405234801561000f575f5ffd5b5060405161216038038061216083398101604081905261002e916101be565b808585600361003d8382610311565b50600461004a8282610311565b5050506001600160a01b03811661007a57604051631e4fbdf760e01b81525f600482015260240160405180910390fd5b610083816100b5565b5060066100908882610311565b50506001600160a01b0394851660805290841660a05290921660c052506103cb915050565b600580546001600160a01b038381166001600160a01b0319831681179093556040519116919082907f8be0079c531659141344cd1fd0a4f28419497f9722a3daafe3b4186f6b6457e0905f90a35050565b634e487b7160e01b5f52604160045260245ffd5b5f82601f830112610129575f5ffd5b81516001600160401b0381111561014257610142610106565b604051601f8201601f19908116603f011681016001600160401b038111828210171561017057610170610106565b604052818152838201602001851015610187575f5ffd5b8160208501602083015e5f918101602001919091529392505050565b80516001600160a01b03811681146101b9575f5ffd5b919050565b5f5f5f5f5f5f5f60e0888a0312156101d4575f5ffd5b87516001600160401b038111156101e9575f5ffd5b6101f58a828b0161011a565b975050610204602089016101a3565b60408901519096506001600160401b0381111561021f575f5ffd5b61022b8a828b0161011a565b60608a015190965090506001600160401b03811115610248575f5ffd5b6102548a828b0161011a565b945050610263608089016101a3565b925061027160a089016101a3565b915061027f60c089016101a3565b905092959891949750929550565b600181811c908216806102a157607f821691505b6020821081036102bf57634e487b7160e01b5f52602260045260245ffd5b50919050565b601f82111561030c57805f5260205f20601f840160051c810160208510156102ea5750805b601f840160051c820191505b81811015610309575f81556001016102f6565b50505b505050565b81516001600160401b0381111561032a5761032a610106565b61033e81610338845461028d565b846102c5565b6020601f821160018114610370575f83156103595750848201515b5f19600385901b1c1916600184901b178455610309565b5f84815260208120601f198516915b8281101561039f578785015182556020948501946001909201910161037f565b50848210156103bc57868401515f19600387901b60f8161c191681555b50505050600190811b01905550565b60805160a05160c051611cbc6104a45f395f818161020a015281816106a40152818161099301528181610a4a01528181610e1801526115e701525f818161033e015281816106720152818161075d01528181610a1b01528181610b01015281816116ac01526117da01525f818161019d015281816105d501528181610728015281816107f001528181610acc01528181610b6f01528181610d9501528181610fce0152818161110001528181611195015281816112100152818161156801528181611611015281816116db015261179f0152611cbc5ff3fe608060405234801561000f575f5ffd5b5060043610610153575f3560e01c806370a08231116100bf578063b6b55f2511610079578063b6b55f25146102de578063c05f6841146102f1578063db2e21bc146102f9578063dd62ed3e14610301578063ee567cd914610339578063f2fde38b14610360575f5ffd5b806370a082311461027a578063715018a6146102a25780638da5cb5b146102aa57806395d89b41146102bb578063a9059cbb146102c3578063a95c13d9146102d6575f5ffd5b806324bcc8d21161011057806324bcc8d2146102055780632e1a7d4d1461022c578063313ce567146102415780634e71d92d1461025057806360246c88146102585780636e07302b14610272575f5ffd5b806306fdde0314610157578063095ea7b31461017557806311eac8551461019857806318160ddd146101d75780631dec1515146101e957806323b872dd146101f2575b5f5ffd5b61015f610373565b60405161016c9190611a5a565b60405180910390f35b610188610183366004611a8e565b610403565b604051901515815260200161016c565b6101bf7f000000000000000000000000000000000000000000000000000000000000000081565b6040516001600160a01b03909116815260200161016c565b6002545b60405190815260200161016c565b6101db60075481565b610188610200366004611ab6565b61041c565b6101bf7f000000000000000000000000000000000000000000000000000000000000000081565b61023f61023a366004611af0565b61043f565b005b6040516012815260200161016c565b61023f610911565b610260610cae565b60405161016c96959493929190611b07565b6101db610d74565b6101db610288366004611b5e565b6001600160a01b03165f9081526020819052604090205490565b61023f610ea2565b6005546001600160a01b03166101bf565b61015f610eb5565b6101886102d1366004611a8e565b610ec4565b61015f610ed1565b61023f6102ec366004611af0565b610f5d565b6101db6110e9565b61023f611176565b6101db61030f366004611b77565b6001600160a01b039182165f90815260016020908152604080832093909416825291909152205490565b6101bf7f000000000000000000000000000000000000000000000000000000000000000081565b61023f61036e366004611b5e565b611310565b60606003805461038290611ba8565b80601f01602080910402602001604051908101604052809291908181526020018280546103ae90611ba8565b80156103f95780601f106103d0576101008083540402835291602001916103f9565b820191905f5260205f20905b8154815290600101906020018083116103dc57829003601f168201915b5050505050905090565b5f3361041081858561134a565b60019150505b92915050565b5f3361042985828561135c565b6104348585856113d8565b506001949350505050565b5f81116104935760405162461bcd60e51b815260206004820152601d60248201527f416d6f756e74206d7573742062652067726561746572207468616e203000000060448201526064015b60405180910390fd5b335f908152602081905260409020548111156104f15760405162461bcd60e51b815260206004820152601d60248201527f496e73756666696369656e74204c5020746f6b656e2062616c616e6365000000604482015260640161048a565b5f6104fa610d74565b90505f61050660025490565b90505f81116105575760405162461bcd60e51b815260206004820152601b60248201527f4e6f204c5020746f6b656e7320696e2063697263756c6174696f6e0000000000604482015260640161048a565b5f816105638486611bf4565b61056d9190611c0b565b90505f81116105be5760405162461bcd60e51b815260206004820152601b60248201527f5769746864726177616c20616d6f756e7420746f6f20736d616c6c0000000000604482015260640161048a565b6040516370a0823160e01b81523060048201525f907f00000000000000000000000000000000000000000000000000000000000000006001600160a01b0316906370a0823190602401602060405180830381865afa158015610622573d5f5f3e3d5ffd5b505050506040513d601f19601f820116820180604052508101906106469190611c2a565b9050818110156107ca575f61065b8284611c41565b60405163095ea7b360e01b81526001600160a01b037f000000000000000000000000000000000000000000000000000000000000000081166004830152602482018390529192507f00000000000000000000000000000000000000000000000000000000000000009091169063095ea7b3906044016020604051808303815f875af11580156106ec573d5f5f3e3d5ffd5b505050506040513d601f19601f820116820180604052508101906107109190611c54565b50604051631a4ca37b60e21b81526001600160a01b037f000000000000000000000000000000000000000000000000000000000000000081166004830152602482018390523060448301527f000000000000000000000000000000000000000000000000000000000000000016906369328dec906064016020604051808303815f875af11580156107a3573d5f5f3e3d5ffd5b505050506040513d601f19601f820116820180604052508101906107c79190611c2a565b50505b6107d43386611435565b60405163a9059cbb60e01b8152336004820152602481018390527f00000000000000000000000000000000000000000000000000000000000000006001600160a01b03169063a9059cbb906044016020604051808303815f875af115801561083e573d5f5f3e3d5ffd5b505050506040513d601f19601f820116820180604052508101906108629190611c54565b6108a55760405162461bcd60e51b81526020600482015260146024820152731554d110c81d1c985b9cd9995c8819985a5b195960621b604482015260640161048a565b81600754106108ca578160075f8282546108bf9190611c41565b909155506108cf9050565b5f6007555b604080518381526020810187905233917ff279e6a1f5e320cca91135676d9cb6e44ca8a08c0b88342bcdb1144f6511b568910160405180910390a25050505050565b61091961146d565b5f610922610d74565b90505f81116109685760405162461bcd60e51b81526020600482015260126024820152714e6f2061737365747320746f20636c61696d60701b604482015260640161048a565b5f61097161149a565b6040516370a0823160e01b81523060048201529091505f906001600160a01b037f000000000000000000000000000000000000000000000000000000000000000016906370a0823190602401602060405180830381865afa1580156109d8573d5f5f3e3d5ffd5b505050506040513d601f19601f820116820180604052508101906109fc9190611c2a565b90508015610b6d5760405163095ea7b360e01b81526001600160a01b037f000000000000000000000000000000000000000000000000000000000000000081166004830152602482018390527f0000000000000000000000000000000000000000000000000000000000000000169063095ea7b3906044016020604051808303815f875af1158015610a90573d5f5f3e3d5ffd5b505050506040513d601f19601f82011682018060405250810190610ab49190611c54565b50604051631a4ca37b60e21b81526001600160a01b037f000000000000000000000000000000000000000000000000000000000000000081166004830152602482018390523060448301527f000000000000000000000000000000000000000000000000000000000000000016906369328dec906064016020604051808303815f875af1158015610b47573d5f5f3e3d5ffd5b505050506040513d601f19601f82011682018060405250810190610b6b9190611c2a565b505b7f00000000000000000000000000000000000000000000000000000000000000006001600160a01b031663a9059cbb610bae6005546001600160a01b031690565b6040516001600160e01b031960e084901b1681526001600160a01b039091166004820152602481018690526044016020604051808303815f875af1158015610bf8573d5f5f3e3d5ffd5b505050506040513d601f19601f82011682018060405250810190610c1c9190611c54565b610c685760405162461bcd60e51b815260206004820152601d60248201527f55534443207472616e7366657220746f2061646d696e206661696c6564000000604482015260640161048a565b5f6007819055604080519182526020820184905233917f34fcbac0073d7c3d388e51312faf357774904998eeb8fca628b9e6f65ee1cbf7910160405180910390a2505050565b60608060605f5f5f6006610cc0610373565b610cc8610eb5565b600754600254610cd661149a565b858054610ce290611ba8565b80601f0160208091040260200160405190810160405280929190818152602001828054610d0e90611ba8565b8015610d595780601f10610d3057610100808354040283529160200191610d59565b820191905f5260205f20905b815481529060010190602001808311610d3c57829003601f168201915b50505050509550955095509550955095509550909192939495565b6040516370a0823160e01b81523060048201525f9081906001600160a01b037f000000000000000000000000000000000000000000000000000000000000000016906370a0823190602401602060405180830381865afa158015610dda573d5f5f3e3d5ffd5b505050506040513d601f19601f82011682018060405250810190610dfe9190611c2a565b6040516370a0823160e01b81523060048201529091505f907f00000000000000000000000000000000000000000000000000000000000000006001600160a01b0316906370a0823190602401602060405180830381865afa925050508015610e83575060408051601f3d908101601f19168201909252610e8091810190611c2a565b60015b610e8e57505f610e91565b90505b610e9b8183611c73565b9250505090565b610eaa61146d565b610eb35f6114cc565b565b60606004805461038290611ba8565b5f336104108185856113d8565b60068054610ede90611ba8565b80601f0160208091040260200160405190810160405280929190818152602001828054610f0a90611ba8565b8015610f555780601f10610f2c57610100808354040283529160200191610f55565b820191905f5260205f20905b815481529060010190602001808311610f3857829003601f168201915b505050505081565b5f8111610fac5760405162461bcd60e51b815260206004820152601d60248201527f416d6f756e74206d7573742062652067726561746572207468616e2030000000604482015260640161048a565b6040516323b872dd60e01b8152336004820152306024820152604481018290527f00000000000000000000000000000000000000000000000000000000000000006001600160a01b0316906323b872dd906064016020604051808303815f875af115801561101c573d5f5f3e3d5ffd5b505050506040513d601f19601f820116820180604052508101906110409190611c54565b6110835760405162461bcd60e51b81526020600482015260146024820152731554d110c81d1c985b9cd9995c8819985a5b195960621b604482015260640161048a565b61108d338261151d565b8060075f82825461109e9190611c73565b9091555050604080518281526020810183905233917f90890809c654f11d6e72a28fa60149770a0d11ec6c92319d6ceb2bb0a4ea1a15910160405180910390a26110e6611551565b50565b6040516370a0823160e01b81523060048201525f907f00000000000000000000000000000000000000000000000000000000000000006001600160a01b0316906370a0823190602401602060405180830381865afa15801561114d573d5f5f3e3d5ffd5b505050506040513d601f19601f820116820180604052508101906111719190611c2a565b905090565b61117e61146d565b6040516370a0823160e01b81523060048201525f907f00000000000000000000000000000000000000000000000000000000000000006001600160a01b0316906370a0823190602401602060405180830381865afa1580156111e2573d5f5f3e3d5ffd5b505050506040513d601f19601f820116820180604052508101906112069190611c2a565b905080156110e6577f00000000000000000000000000000000000000000000000000000000000000006001600160a01b031663a9059cbb61124f6005546001600160a01b031690565b6040516001600160e01b031960e084901b1681526001600160a01b039091166004820152602481018490526044016020604051808303815f875af1158015611299573d5f5f3e3d5ffd5b505050506040513d601f19601f820116820180604052508101906112bd9190611c54565b6113095760405162461bcd60e51b815260206004820152601b60248201527f456d657267656e6379207769746864726177616c206661696c65640000000000604482015260640161048a565b5f60075550565b61131861146d565b6001600160a01b03811661134157604051631e4fbdf760e01b81525f600482015260240161048a565b6110e6816114cc565b6113578383836001611834565b505050565b6001600160a01b038381165f908152600160209081526040808320938616835292905220545f198110156113d257818110156113c457604051637dc7a0d960e11b81526001600160a01b0384166004820152602481018290526044810183905260640161048a565b6113d284848484035f611834565b50505050565b6001600160a01b03831661140157604051634b637e8f60e11b81525f600482015260240161048a565b6001600160a01b03821661142a5760405163ec442f0560e01b81525f600482015260240161048a565b611357838383611906565b6001600160a01b03821661145e57604051634b637e8f60e11b81525f600482015260240161048a565b611469825f83611906565b5050565b6005546001600160a01b03163314610eb35760405163118cdaa760e01b815233600482015260240161048a565b5f5f6114a4610d74565b90505f60075482106114c4576007546114bd9083611c41565b9050610416565b505f92915050565b600580546001600160a01b038381166001600160a01b0319831681179093556040519116919082907f8be0079c531659141344cd1fd0a4f28419497f9722a3daafe3b4186f6b6457e0905f90a35050565b6001600160a01b0382166115465760405163ec442f0560e01b81525f600482015260240161048a565b6114695f8383611906565b6040516370a0823160e01b81523060048201525f907f00000000000000000000000000000000000000000000000000000000000000006001600160a01b0316906370a0823190602401602060405180830381865afa1580156115b5573d5f5f3e3d5ffd5b505050506040513d601f19601f820116820180604052508101906115d99190611c2a565b9050805f036115e55750565b7f00000000000000000000000000000000000000000000000000000000000000006001600160a01b03167f00000000000000000000000000000000000000000000000000000000000000006001600160a01b0316036116955760405162461bcd60e51b815260206004820152602660248201527f4161766520616464726573736573206e6f742070726f7065726c7920636f6e666044820152651a59dd5c995960d21b606482015260840161048a565b60405163095ea7b360e01b81526001600160a01b037f000000000000000000000000000000000000000000000000000000000000000081166004830152602482018390527f0000000000000000000000000000000000000000000000000000000000000000169063095ea7b3906044016020604051808303815f875af1158015611721573d5f5f3e3d5ffd5b505050506040513d601f19601f820116820180604052508101906117459190611c54565b6117885760405162461bcd60e51b81526020600482015260146024820152731554d110c8185c1c1c9bdd985b0819985a5b195960621b604482015260640161048a565b60405163617ba03760e01b81526001600160a01b037f000000000000000000000000000000000000000000000000000000000000000081166004830152602482018390523060448301525f60648301527f0000000000000000000000000000000000000000000000000000000000000000169063617ba037906084015f604051808303815f87803b15801561181b575f5ffd5b505af115801561182d573d5f5f3e3d5ffd5b5050505050565b6001600160a01b03841661185d5760405163e602df0560e01b81525f600482015260240161048a565b6001600160a01b03831661188657604051634a1406b160e11b81525f600482015260240161048a565b6001600160a01b038085165f90815260016020908152604080832093871683529290522082905580156113d257826001600160a01b0316846001600160a01b03167f8c5be1e5ebec7d5bd14f71427d1e84f3dd0314c0f7b2291e5b200ac8c7c3b925846040516118f891815260200190565b60405180910390a350505050565b6001600160a01b038316611930578060025f8282546119259190611c73565b909155506119a09050565b6001600160a01b0383165f90815260208190526040902054818110156119825760405163391434e360e21b81526001600160a01b0385166004820152602481018290526044810183905260640161048a565b6001600160a01b0384165f9081526020819052604090209082900390555b6001600160a01b0382166119bc576002805482900390556119da565b6001600160a01b0382165f9081526020819052604090208054820190555b816001600160a01b0316836001600160a01b03167fddf252ad1be2c89b69c2b068fc378daa952ba7f163c4a11628f55a4df523b3ef83604051611a1f91815260200190565b60405180910390a3505050565b5f81518084528060208401602086015e5f602082860101526020601f19601f83011685010191505092915050565b602081525f611a6c6020830184611a2c565b9392505050565b80356001600160a01b0381168114611a89575f5ffd5b919050565b5f5f60408385031215611a9f575f5ffd5b611aa883611a73565b946020939093013593505050565b5f5f5f60608486031215611ac8575f5ffd5b611ad184611a73565b9250611adf60208501611a73565b929592945050506040919091013590565b5f60208284031215611b00575f5ffd5b5035919050565b60c081525f611b1960c0830189611a2c565b8281036020840152611b2b8189611a2c565b90508281036040840152611b3f8188611a2c565b60608401969096525050608081019290925260a0909101529392505050565b5f60208284031215611b6e575f5ffd5b611a6c82611a73565b5f5f60408385031215611b88575f5ffd5b611b9183611a73565b9150611b9f60208401611a73565b90509250929050565b600181811c90821680611bbc57607f821691505b602082108103611bda57634e487b7160e01b5f52602260045260245ffd5b50919050565b634e487b7160e01b5f52601160045260245ffd5b808202811582820484141761041657610416611be0565b5f82611c2557634e487b7160e01b5f52601260045260245ffd5b500490565b5f60208284031215611c3a575f5ffd5b5051919050565b8181038181111561041657610416611be0565b5f60208284031215611c64575f5ffd5b81518015158114611a6c575f5ffd5b8082018082111561041657610416611be056fea2646970667358221220054676ea24cc17964420600b9a2bc4eda49d8bff6dac12eaf4f8936e66de3bbb64736f6c634300081c0033a2646970667358221220487d1e85e025b7739196aa154c30da16924e38dad05f57c1d17b3d94f4117c4d64736f6c634300081c0033",
  "linkReferences": {},
  "deployedLinkReferences": {},
  "immutableReferences": {
    "2139": [
      {
        "length": 32,
        "start": 563
      },
      {
        "length": 32,
        "start": 1399
      }
    ],
    "2141": [
      {
        "length": 32,
        "start": 703
      },
      {
        "length": 32,
        "start": 1434
      }
    ],
    "2143": [
      {
        "length": 32,
        "start": 315
      },
      {
        "length": 32,
        "start": 1467
      }
    ]
  },
  "inputSourceName": "project/contracts/FanVestFactory.sol",
  "buildInfoId": "solc-0_8_28-1f46e8ce7f09e910dcef962fb0d0d8a87f5f5bd2"
}